{
  "contractName": "Enrollment",
  "abi": [
    {
      "inputs": [
        {
          "internalType": "string",
          "name": "",
          "type": "string"
        },
        {
          "internalType": "address",
          "name": "",
          "type": "address"
        }
      ],
      "name": "moduleStudents",
      "outputs": [
        {
          "internalType": "bool",
          "name": "",
          "type": "bool"
        }
      ],
      "stateMutability": "view",
      "type": "function",
      "constant": true
    },
    {
      "inputs": [
        {
          "internalType": "string",
          "name": "",
          "type": "string"
        }
      ],
      "name": "modules",
      "outputs": [
        {
          "internalType": "string",
          "name": "moduleName",
          "type": "string"
        },
        {
          "internalType": "uint256",
          "name": "capacity",
          "type": "uint256"
        },
        {
          "internalType": "uint256",
          "name": "enrolled",
          "type": "uint256"
        }
      ],
      "stateMutability": "view",
      "type": "function",
      "constant": true
    },
    {
      "inputs": [
        {
          "internalType": "string",
          "name": "moduleName",
          "type": "string"
        },
        {
          "internalType": "uint256",
          "name": "capacity",
          "type": "uint256"
        }
      ],
      "name": "addModule",
      "outputs": [],
      "stateMutability": "nonpayable",
      "type": "function"
    },
    {
      "inputs": [
        {
          "internalType": "string",
          "name": "moduleName",
          "type": "string"
        }
      ],
      "name": "enrollStudent",
      "outputs": [],
      "stateMutability": "nonpayable",
      "type": "function"
    },
    {
      "inputs": [
        {
          "internalType": "string",
          "name": "moduleName",
          "type": "string"
        }
      ],
      "name": "getModuleDetails",
      "outputs": [
        {
          "internalType": "string",
          "name": "",
          "type": "string"
        },
        {
          "internalType": "uint256",
          "name": "",
          "type": "uint256"
        },
        {
          "internalType": "uint256",
          "name": "",
          "type": "uint256"
        }
      ],
      "stateMutability": "view",
      "type": "function",
      "constant": true
    },
    {
      "inputs": [],
      "name": "getAllModules",
      "outputs": [
        {
          "internalType": "string[]",
          "name": "",
          "type": "string[]"
        }
      ],
      "stateMutability": "view",
      "type": "function",
      "constant": true
    }
  ],
  "bytecode": "0x608060405234801561001057600080fd5b50611053806100206000396000f3fe608060405234801561001057600080fd5b50600436106100625760003560e01c806334c2d17e146100675780637fcdcbeb146100835780638f05e788146100b357806399b0d6d0146100cf5780639c17f90514610101578063c139813714610133575b600080fd5b610081600480360381019061007c9190610935565b610151565b005b61009d60048036038101906100989190610976565b61039a565b6040516100aa9190610ca1565b60405180910390f35b6100cd60048036038101906100c891906109ca565b6103df565b005b6100e960048036038101906100e49190610935565b6104fc565b6040516100f893929190610cbc565b60405180910390f35b61011b60048036038101906101169190610935565b6105c4565b60405161012a93929190610cbc565b60405180910390f35b61013b610727565b6040516101489190610c7f565b60405180910390f35b600080826040516101629190610c68565b9081526020016040518091039020600001805461017e90610ed6565b9050116101c0576040517f08c379a00000000000000000000000000000000000000000000000000000000081526004016101b790610cfa565b60405180910390fd5b6000816040516101d09190610c68565b9081526020016040518091039020600201546000826040516101f29190610c68565b90815260200160405180910390206001015411610244576040517f08c379a000000000000000000000000000000000000000000000000000000000815260040161023b90610d3a565b60405180910390fd5b6001816040516102549190610c68565b908152602001604051809103902060003373ffffffffffffffffffffffffffffffffffffffff1673ffffffffffffffffffffffffffffffffffffffff16815260200190815260200160002060009054906101000a900460ff16156102ed576040517f08c379a00000000000000000000000000000000000000000000000000000000081526004016102e490610d5a565b60405180910390fd5b600180826040516102fe9190610c68565b908152602001604051809103902060003373ffffffffffffffffffffffffffffffffffffffff1673ffffffffffffffffffffffffffffffffffffffff16815260200190815260200160002060006101000a81548160ff0219169083151502179055506000816040516103709190610c68565b9081526020016040518091039020600201600081548092919061039290610f08565b919050555050565b6001828051602081018201805184825260208301602085012081835280955050505050506020528060005260406000206000915091509054906101000a900460ff1681565b600080836040516103f09190610c68565b9081526020016040518091039020600001805461040c90610ed6565b90501461044e576040517f08c379a000000000000000000000000000000000000000000000000000000000815260040161044590610d1a565b60405180910390fd5b6040518060600160405280838152602001828152602001600081525060008360405161047a9190610c68565b908152602001604051809103902060008201518160000190805190602001906104a4929190610800565b5060208201518160010155604082015181600201559050506002829080600181540180825580915050600190039060005260206000200160009091909190915090805190602001906104f7929190610800565b505050565b60008180516020810182018051848252602083016020850120818352809550505050505060009150905080600001805461053590610ed6565b80601f016020809104026020016040519081016040528092919081815260200182805461056190610ed6565b80156105ae5780601f10610583576101008083540402835291602001916105ae565b820191906000526020600020905b81548152906001019060200180831161059157829003601f168201915b5050505050908060010154908060020154905083565b6060600080600080856040516105da9190610c68565b908152602001604051809103902060000180546105f690610ed6565b905011610638576040517f08c379a000000000000000000000000000000000000000000000000000000000815260040161062f90610cfa565b60405180910390fd5b600080856040516106499190610c68565b908152602001604051809103902060405180606001604052908160008201805461067290610ed6565b80601f016020809104026020016040519081016040528092919081815260200182805461069e90610ed6565b80156106eb5780601f106106c0576101008083540402835291602001916106eb565b820191906000526020600020905b8154815290600101906020018083116106ce57829003601f168201915b50505050508152602001600182015481526020016002820154815250509050806000015181602001518260400151935093509350509193909250565b60606002805480602002602001604051908101604052809291908181526020016000905b828210156107f757838290600052602060002001805461076a90610ed6565b80601f016020809104026020016040519081016040528092919081815260200182805461079690610ed6565b80156107e35780601f106107b8576101008083540402835291602001916107e3565b820191906000526020600020905b8154815290600101906020018083116107c657829003601f168201915b50505050508152602001906001019061074b565b50505050905090565b82805461080c90610ed6565b90600052602060002090601f01602090048101928261082e5760008555610875565b82601f1061084757805160ff1916838001178555610875565b82800160010185558215610875579182015b82811115610874578251825591602001919060010190610859565b5b5090506108829190610886565b5090565b5b8082111561089f576000816000905550600101610887565b5090565b60006108b66108b184610dab565b610d7a565b9050828152602081018484840111156108ce57600080fd5b6108d9848285610e94565b509392505050565b6000813590506108f081610fef565b92915050565b600082601f83011261090757600080fd5b81356109178482602086016108a3565b91505092915050565b60008135905061092f81611006565b92915050565b60006020828403121561094757600080fd5b600082013567ffffffffffffffff81111561096157600080fd5b61096d848285016108f6565b91505092915050565b6000806040838503121561098957600080fd5b600083013567ffffffffffffffff8111156109a357600080fd5b6109af858286016108f6565b92505060206109c0858286016108e1565b9150509250929050565b600080604083850312156109dd57600080fd5b600083013567ffffffffffffffff8111156109f757600080fd5b610a03858286016108f6565b9250506020610a1485828601610920565b9150509250929050565b6000610a2a8383610ab6565b905092915050565b6000610a3d82610deb565b610a478185610e0e565b935083602082028501610a5985610ddb565b8060005b85811015610a955784840389528151610a768582610a1e565b9450610a8183610e01565b925060208a01995050600181019050610a5d565b50829750879550505050505092915050565b610ab081610e5e565b82525050565b6000610ac182610df6565b610acb8185610e1f565b9350610adb818560208601610ea3565b610ae481610fde565b840191505092915050565b6000610afa82610df6565b610b048185610e30565b9350610b14818560208601610ea3565b610b1d81610fde565b840191505092915050565b6000610b3382610df6565b610b3d8185610e41565b9350610b4d818560208601610ea3565b80840191505092915050565b6000610b66601083610e30565b91507f4d6f64756c65206e6f7420666f756e64000000000000000000000000000000006000830152602082019050919050565b6000610ba6601583610e30565b91507f4d6f64756c6520616c72656164792065786973747300000000000000000000006000830152602082019050919050565b6000610be6600e83610e30565b91507f4d6f64756c652069732066756c6c0000000000000000000000000000000000006000830152602082019050919050565b6000610c26601883610e30565b91507f53747564656e7420616c726561647920656e726f6c6c656400000000000000006000830152602082019050919050565b610c6281610e8a565b82525050565b6000610c748284610b28565b915081905092915050565b60006020820190508181036000830152610c998184610a32565b905092915050565b6000602082019050610cb66000830184610aa7565b92915050565b60006060820190508181036000830152610cd68186610aef565b9050610ce56020830185610c59565b610cf26040830184610c59565b949350505050565b60006020820190508181036000830152610d1381610b59565b9050919050565b60006020820190508181036000830152610d3381610b99565b9050919050565b60006020820190508181036000830152610d5381610bd9565b9050919050565b60006020820190508181036000830152610d7381610c19565b9050919050565b6000604051905081810181811067ffffffffffffffff82111715610da157610da0610faf565b5b8060405250919050565b600067ffffffffffffffff821115610dc657610dc5610faf565b5b601f19601f8301169050602081019050919050565b6000819050602082019050919050565b600081519050919050565b600081519050919050565b6000602082019050919050565b600082825260208201905092915050565b600082825260208201905092915050565b600082825260208201905092915050565b600081905092915050565b6000610e5782610e6a565b9050919050565b60008115159050919050565b600073ffffffffffffffffffffffffffffffffffffffff82169050919050565b6000819050919050565b82818337600083830152505050565b60005b83811015610ec1578082015181840152602081019050610ea6565b83811115610ed0576000848401525b50505050565b60006002820490506001821680610eee57607f821691505b60208210811415610f0257610f01610f80565b5b50919050565b6000610f1382610e8a565b91507fffffffffffffffffffffffffffffffffffffffffffffffffffffffffffffffff821415610f4657610f45610f51565b5b600182019050919050565b7f4e487b7100000000000000000000000000000000000000000000000000000000600052601160045260246000fd5b7f4e487b7100000000000000000000000000000000000000000000000000000000600052602260045260246000fd5b7f4e487b7100000000000000000000000000000000000000000000000000000000600052604160045260246000fd5b6000601f19601f8301169050919050565b610ff881610e4c565b811461100357600080fd5b50565b61100f81610e8a565b811461101a57600080fd5b5056fea2646970667358221220b0805d9a4e852e8129154b598b210975c779230a19c779823611d96a872da31164736f6c63430008000033",
  "immutableReferences": {},
  "source": "// SPDX-License-Identifier: MIT\r\npragma solidity ^0.8.0;\r\n\r\ncontract Enrollment {\r\n    struct Module {\r\n        string moduleName;\r\n        uint capacity;\r\n        uint enrolled;\r\n    }\r\n\r\n    mapping(string => Module) public modules;\r\n    mapping(string => mapping(address => bool)) public moduleStudents;\r\n    string[] private moduleKeys; \r\n\r\n    function addModule(string memory moduleName, uint capacity) public {\r\n        require(bytes(modules[moduleName].moduleName).length == 0, \"Module already exists\");\r\n\r\n        modules[moduleName] = Module(moduleName, capacity, 0);\r\n        moduleKeys.push(moduleName); \r\n    }\r\n\r\n    function enrollStudent(string memory moduleName) public {\r\n        require(bytes(modules[moduleName].moduleName).length > 0, \"Module not found\");\r\n        require(modules[moduleName].capacity > modules[moduleName].enrolled, \"Module is full\");\r\n        require(!moduleStudents[moduleName][msg.sender], \"Student already enrolled\");\r\n\r\n        moduleStudents[moduleName][msg.sender] = true;\r\n        modules[moduleName].enrolled++;\r\n    }\r\n\r\n    function getModuleDetails(string memory moduleName) public view returns (string memory, uint, uint) {\r\n        require(bytes(modules[moduleName].moduleName).length > 0, \"Module not found\");\r\n\r\n        Module memory module = modules[moduleName];\r\n        return (module.moduleName, module.capacity, module.enrolled);\r\n    }\r\n\r\n    \r\n    function getAllModules() public view returns (string[] memory) {\r\n        return moduleKeys;\r\n    }\r\n}\r\n",
  "sourcePath": "D:\\CS4207 Final Assignment\\contracts\\Enrollment.sol",
  "compiler": {
    "name": "solc",
    "version": "0.8.0+commit.c7dfd78e.Emscripten.clang"
  },
  "schemaVersion": "3.4.16",
  "updatedAt": "2024-12-03T19:08:38.815Z",
  "networkType": "ethereum",
  "devdoc": {
    "kind": "dev",
    "methods": {},
    "version": 1
  },
  "userdoc": {
    "kind": "user",
    "methods": {},
    "version": 1
  }
}